{
  "contractName": "Agreement",
  "abi": [
    {
      "inputs": [
        {
          "name": "hash",
          "type": "string"
        }
      ],
      "payable": false,
      "stateMutability": "nonpayable",
      "type": "constructor"
    },
    {
      "constant": true,
      "inputs": [],
      "name": "getHash",
      "outputs": [
        {
          "name": "",
          "type": "string"
        }
      ],
      "payable": false,
      "stateMutability": "view",
      "type": "function"
    }
  ],
  "bytecode": "0x6060604052341561000f57600080fd5b604051610346380380610346833981016040528080518201919050506000600160009054906101000a900460ff16600181111561004857fe5b81600181111561005457fe5b14151561006057600080fd5b81600090805190602001906100769291906100a1565b5060018060006101000a81548160ff0219169083600181111561009557fe5b02179055505050610146565b828054600181600116156101000203166002900490600052602060002090601f016020900481019282601f106100e257805160ff1916838001178555610110565b82800160010185558215610110579182015b8281111561010f5782518255916020019190600101906100f4565b5b50905061011d9190610121565b5090565b61014391905b8082111561013f576000816000905550600101610127565b5090565b90565b6101f1806101556000396000f300606060405260043610610041576000357c0100000000000000000000000000000000000000000000000000000000900463ffffffff168063d13319c414610046575b600080fd5b341561005157600080fd5b6100596100d4565b6040518080602001828103825283818151815260200191508051906020019080838360005b8381101561009957808201518184015260208101905061007e565b50505050905090810190601f1680156100c65780820380516001836020036101000a031916815260200191505b509250505060405180910390f35b6100dc6101b1565b60018060009054906101000a900460ff1660018111156100f857fe5b81600181111561010457fe5b14151561011057600080fd5b60008054600181600116156101000203166002900480601f0160208091040260200160405190810160405280929190818152602001828054600181600116156101000203166002900480156101a65780601f1061017b576101008083540402835291602001916101a6565b820191906000526020600020905b81548152906001019060200180831161018957829003601f168201915b505050505091505090565b6020604051908101604052806000815250905600a165627a7a723058207cd4e3af6afcadb96b9a139704930fad6c4eae1d5ffc443a96370ec5b6c279090029",
  "source": "pragma solidity^0.4.19;\n\ncontract Agreement {\n\n  string _hash;\n\n  enum State {Created, Disabled}\n  State state;\n\n  modifier inState(State s) {require(s == state); _;}\n\n  function Agreement (string hash) public \n    inState(State.Created)\n  {\n    _hash = hash;\n    state = State.Disabled;\n  }\n\n  function getHash() view public \n  inState(State.Disabled) \n  returns(string)\n  {\n    return _hash;\n  }\n}",
  "sourcePath": "/home/canoodle/Desktop/codes/EverHash/contracts/Agreement.sol",
  "compiler": {
    "name": "solc",
    "version": "0.4.19+commit.c4cbbb05.Emscripten.clang"
  },
  "schemaVersion": "2.0.0",
  "updatedAt": "2018-04-29T16:28:51.468Z"
}